:020000040800F2
:10000000D8040020C10100089F110008AF100008AB
:100010009D110008F9020008051500080000000005
:10002000000000000000000000000000A311000814
:10003000FB02000800000000A1110008A511000843
:10004000DB010008DB010008DB010008DB01000820
:10005000DB010008DB010008DB010008DB01000810
:10006000DB010008DB010008DB010008DB01000800
:10007000DB010008DB010008DB010008DB010008F0
:10008000DB010008DB010008DB010008DB010008E0
:10009000DB010008DB010008DB010008DB010008D0
:1000A000DB01000839120008DB010008DB01000851
:1000B000DB010008DB010008DB010008DB010008B0
:1000C000DB010008DB010008DB010008DB010008A0
:1000D000DB010008DB010008DB010008DB01000890
:1000E000DB010008DB010008DB010008DB01000880
:1000F000DB010008DB010008DB010008DB01000870
:10010000DB010008DB010008DB010008DB0100085F
:10011000DB010008DB010008DB010008DB0100084F
:10012000DB010008DB010008DB010008DB0100083F
:10013000DB010008DB010008DB010008DB0100082F
:10014000DB010008DB010008DB010008DB0100081F
:10015000DB010008DB010008DB010008DB0100080F
:10016000DB010008DB010008DB010008DB010008FF
:10017000DB010008DB010008DB01000800000000D3
:10018000DB010008DB010008DB010008DB010008DF
:10019000DB010008DB010008DB010008DB010008CF
:1001A000DB010008DB010008DB010008DFF80CD0F0
:1001B00000F090F800480047BD180008D80400205F
:1001C0000648804706480047FEE7FEE7FEE7FEE7F1
:1001D000FEE7FEE7FEE7FEE7FEE7FEE71D1200088A
:1001E000AD0100082DE9F05F0546002092469B46D0
:1001F00088460646814640241BE02846414647463D
:10020000224600F057F853465A46C01A914110D37F
:1002100011461846224600F03EF82D1A67EB0108F9
:100220004F4622460120002100F035F817EB000967
:100230004E41201EA4F10104DFDC484631462A4627
:100240004346BDE8F09FD2B201E000F8012B491E01
:10025000FBD270470022F6E710B513460A46044663
:100260001946FFF7F0FF204610BD30B50B4601469A
:1002700000202022012409E021FA02F59D4205D345
:1002800003FA02F5491B04FA02F52844151EA2F1EF
:100290000102F1DC30BD202A04DB203A00FA02F131
:1002A000002070479140C2F1200320FA03F3194364
:1002B00090407047202A04DB203A21FA02F0002106
:1002C000704721FA02F3D040C2F120029140084366
:1002D00019467047064C074D06E0E06840F0010300
:1002E00094E8070098471034AC42F6D3FFF762FF5A
:1002F0004419000864190008FEE770472DE9F84F1B
:1003000000224FF0010803254FF00F0E0B6808FA8A
:1003100002F42340A3426ED14E68012E05D0022E76
:1003200003D0112E01D0122E12D186684FEA420C52
:1003300005FA0CF7BE43CF6807FA0CF7374387601E
:100340004668A6430C79C4F30014944034434460D7
:10035000C668570005FA07FC8C6826EA0C06BC4004
:100360003443C4604C68022C01D0122C13D1D40841
:1003700000EB8404A346D4F8209054074FEAD46AD3
:100380000EFA0AF629EA06090E6906FA0AF646EA9C
:100390000906CBF8206004680E7924EA0C0406F004
:1003A0000306BE40264306604C68E4006FD53B4C14
:1003B000266846F480462660246822F0030604F48A
:1003C00080440094364C3444A446D4F80848960738
:1003D000360F0EFA06F7BC43324FB84201D1002760
:1003E0002EE0314FB84201D1012729E02F4FB8420A
:1003F00002D1022724E04AE02D4FB84201D1032761
:100400001EE02C4FB84201D1042719E02A4FB84210
:1004100001D1052714E0294FB84201D106270FE08A
:10042000274FB84201D107270AE0264FB84201D131
:10043000082705E0244FB84201D1092700E00A2728
:10044000B7402743CCF80878204E34684F689C4367
:10045000FF0300D51C4334601C4E361D34684F68C2
:100460009C43BF0300D51C433460184E08363468E3
:100470004F689C43FF0200D51C433460134E0C367A
:1004800034684F689C43BF0200D51C433460521C43
:10049000102AFFF43BAFBDE8F88F0000443802405B
:1004A0000030014000000240000402400008024009
:1004B000000C0240001002400014024000180240EC
:1004C000001C02400020024000240240003C014089
:1004D0000069084000D00120704700000148806892
:1004E000704700002C000020024881680278114407
:1004F000816070472C0000200B4810B5016841F462
:1005000000710160016841F480610160016841F49B
:1005100080710160032000F06FF8002000F006F801
:1005200000F024F8002010BD003C024070B50D4DD5
:1005300004464FF47A712878B1FBF0F00A49096853
:10054000B1FBF0F000F004FB48B9102C07D20022F8
:100550002146501E00F030F800206C6070BD012074
:1005600070BD00002C000020380000200A4808B5AB
:10057000016841F480410160006800F4804000900F
:100580000548001F016841F080510160006800F0DB
:100590008050009008BD000044380240002809DB6C
:1005A00000F01F02012191404009800000F1E0208D
:1005B000C0F8001170470000F0B40E4B1B680C46E9
:1005C000C3F30223C3F10705042D00D90425191D27
:1005D000072901D2002300E0DB1E012606FA05F1FF
:1005E000491E214099409E40761E16403143F0BC82
:1005F00000F09ABF0CED00E0064900F00702086821
:100600004FF6FF03184040EA0220034A10430860F7
:10061000704700000CED00E00000FA052DE9F047FE
:100620000E46050065D0DFF81481D8F80000F7B257
:1006300000F00F00B04207D288F80070D8F8000030
:1006400000F00F00B04254D128683D4C810712D50C
:10065000400703D5206840F4E05020602878000768
:1006600003D5206840F4604020602068A96820F02D
:10067000F000084320602878C0072DD03049686812
:100680000839012812D0022813D0032811D0096894
:10069000890700292DDA216821F003010143216037
:1006A000FFF71CFF814641F2883A0EE00968890392
:1006B000EFE709688901ECE7FFF710FFA0EB0901FC
:1006C000514502D90320BDE8F0872068696800F031
:1006D0000C00B0EB810FEFD1D8F80010404601F0CC
:1006E0000F01B14207D90770006800F00F00B04257
:1006F00001D00120E7E72878400705D52068E968A0
:1007000020F4E050084320602878000706D52068D0
:10071000296920F4604040EAC100206000F038F808
:100720002168084AC1F30311515CC84006490860BA
:1007300006480068FFF7FAFE0020C4E7003C0240CC
:10074000083802402C190008380000203000002032
:100750000448054900680968044AC1F38221515CD4
:10076000C840704738000020083802403C19000893
:100770000448054900680968044AC1F34231515CE4
:10078000C840704738000020083802403C19000873
:10079000154810B5006810F00C02144813D0144925
:1007A000042A0FD0082A0ED10F4C241F2268236878
:1007B00002F03F025B0207D52068C0F38810A0FB5F
:1007C000010106E0084610BD2168C1F38811A1FBB4
:1007D00000010023FFF706FD2168C1F30141491C18
:1007E0004900B0FBF1F010BD083802400024F400CD
:1007F00040787D012DE9F84F04006ED02078DFF8B5
:100800003C93C007A9F104054AD009F1040001682E
:10081000C1F38101012908D00068C0F381000228DA
:100820000AD1D9F80000400206D52868800337D5E0
:1008300060680028E1D033E06068B0F5803F10D0F8
:10084000B0F5A02F286810D020F4803028602868E8
:1008500020F4802028606068A8B1FFF73FFE0646BC
:100860000DE0286840F48030F4E740F480202860F0
:10087000F7E700BFFFF732FE801B642873D82868B3
:100880008003F7D50CE0FFF729FE064605E000BF20
:10089000FFF724FE801B6428F0D828688003F7D473
:1008A0002078DFF89C8280074FF0000A3ED5A348ED
:1008B000001D016811F00C0F08D00068C0F3810022
:1008C00002280BD1D9F80000400207D4286880071D
:1008D00016D5E068012800D112E02BE1E068B8B13C
:1008E0000120C8F80000FFF7F9FD064605E000BF4B
:1008F000FFF7F4FD801B0228C0D828688007F7D5D1
:100900002868216920F0F80040EAC10028600DE065
:10091000C8F800A0FFF7E2FD064604E0FFF7DEFDA1
:10092000801B02281FD828688007F7D4207800078A
:1009300022D5824E83486169703671B10121016010
:10094000FFF7CCFD074604E0FFF7C8FDC01B0228F7
:1009500009D830688007F7D50EE0C0F800A0FFF78F
:10096000BDFD074605E082E0FFF7B8FDC01B022889
:100970007DD830688007F7D42078400768D5DFF845
:10098000BCB100270BF13C0BDBF80000C0000BD41E
:10099000DBF8001041F08051CBF80010DBF80000CC
:1009A000012700F080500090674E3068C00510D4D9
:1009B000306840F480703060FFF790FD009005E0F3
:1009C000FFF78CFD0099401A022850D83068C00506
:1009D000F6D55A4EA0686C3601280FD0052830682D
:1009E00010D020F001003060306820F0040030604A
:1009F000A068B8B1FFF772FD00900FE0306840F0DA
:100A00000100F4E740F004003060F7E7FFF766FD0F
:100A10000099411A41F28830814266D830688007D7
:100A2000F4D50EE0FFF75AFD009007E0FFF756FD02
:100A30000099411A41F28830814256D830688007C7
:100A4000F4D42FB1DBF8001021F08051CBF8001066
:100A5000A069C8B33949091D0968C1F38101022998
:100A60004AD00228504607D0C8F8600000E03CE0B9
:100A7000FFF734FD04463BE04746C8F86000FFF747
:100A80002DFD064605E000BFFFF728FD801B02286C
:100A90002BD828688001F7D4D4E907010843A16A5C
:100AA0002A4A490802EB0141626A41EA821108437D
:100AB00094F82C1040EA0161C9F800100120386652
:100AC000FFF70CFD044606E036E000BFFFF706FD29
:100AD000001B022809D828688001F7D52CE000BF48
:100AE000FFF7FCFC001B022802D90320BDE8F88FA9
:100AF00028688001F4D41FE00128F7D0D9F800005D
:100B0000E26900F48001914214D1226A00F03F01B1
:100B100091420FD147F6C071626A0140914209D1FA
:100B2000A26A00F44031914204D1E16A00F07060A1
:100B3000884201D00120D9E70020D7E704380240DD
:100B400000004742800E4742007000400000FFFF57
:100B500010B5401EB0F1807F01D3012010BD4FF0D1
:100B6000E02460610F21601700F0DEFC0020A0612E
:100B700007202061002010BD7047704770B590F8C5
:100B80003C20012A32D0012480F83C40022280F827
:100B90003D2003685A689D6822F070060A68324357
:100BA0005A60134B02689A4214D0B2F1804F11D0B0
:100BB000104B9A420ED0104B9A420BD00F4B9A42D8
:100BC00008D00F4B9A4205D00E4B9A4202D00E4BE2
:100BD0009A4204D1496825F080031943916080F856
:100BE0003D40002180F83C10084670BD022070BDD9
:100BF000000001400004004000080040000C0040DC
:100C000000040140004001400018004010B50400FD
:100C100003D094F83D0010B107E0012010BD002082
:100C200084F83C00204600F00DF8022084F83D00D6
:100C3000211D206800F006FB012084F83D00002003
:100C400010BD000008B500680B49884212D10B485E
:100C5000016841F0010101600068002200F001001C
:100C6000009011461920FFF7A7FCBDE808401920A5
:100C7000FFF794BC08BD000000000140443802406A
:100C80000168CA6842F00102CA600068816801F028
:100C90000701062903D0016841F00101016000202D
:100CA000704770B5044690F83C00012817D0012524
:100CB00084F83C50022084F83D002068826822F0CD
:100CC000770222F47F4282600868502830D00DDC21
:100CD00020284DD005DC98B310283BD148E00220F5
:100CE00070BD302844D0402834D139E0602828D065
:100CF000702806D0B0F5805F2CD0B0F5005F29D108
:100D00000AE0CB68D1E90121206800F0FFFA2068F1
:100D1000816841F0770109E0CB68D1E901212068C1
:100D200000F0F4FA2068816841F48041816011E0AC
:100D3000CA684968206800F0FBFA5021206807E083
:100D400016E0CA684968206800F003FB602120684B
:100D500000F0E6FA84F83D50002084F83C0070BDB5
:100D6000CA684968206800F0E3FA40212068EFE78C
:100D7000226801461046EBE7704770B504460068EC
:100D800001694FF00005C943890715D4C168C943FB
:100D9000890711D4E91E016101202077206880694C
:100DA0008007204602D0FFF7E7FF04E000F098F844
:100DB000204600F096F8257720680169C943490765
:100DC00017D4C168C943490713D46FF00401016106
:100DD000022020772068806910F4407F204602D0EE
:100DE000FFF7CAFF04E000F07BF8204600F079F836
:100DF000257720680169C943090716D4C168C9432A
:100E0000090712D46FF008010161042020772068DF
:100E1000C0698007204602D0FFF7AEFF04E000F073
:100E20005FF8204600F05DF8257720680169C94326
:100E3000C90617D4C168C943C90613D46FF010019D
:100E40000161082020772068C06910F4407F2046A7
:100E500002D0FFF791FF04E000F042F8204600F0D6
:100E600040F8257720680169C943C90708D1C168DE
:100E7000C943C90704D1891E0161204600F032F838
:100E800020680169C943090609D4C168C943090634
:100E900005D46FF0800101612046FFF76DFE2068E8
:100EA0000169C943490609D4C168C943490605D443
:100EB0006FF040010161204600F034F820680169BC
:100EC000C94389060BD4C168C943890607D46FF0AA
:100ED000200101612046BDE87040FFF74EBE70BDA5
:100EE000704770470068094988420DD108490120C0
:100EF000087008490868401C0860642804D1002074
:100F0000086005A000F000BB704700000000014031
:100F1000C000002000000020313030306D730D0A19
:100F200000000000704770B5040004D094F8390048
:100F3000002510B106E0012070BD84F8385020462D
:100F400000F022F8242084F839002068C16821F4D8
:100F50000051C160204600F00FFA2068016921F4B9
:100F6000904101612068416921F02A0141612068B6
:100F7000C16841F40051C160E563202084F8390064
:100F800084F83A00002070BD10B586B004461421E4
:100F90006846FFF75FF914492068884221D1134859
:100FA0000021026842F010020260006800F01000A8
:100FB00005900E481438026842F001020260006891
:100FC00000F0010005904FF4C06000900220CDE9D0
:100FD0000101032003900720049069460448FFF7AD
:100FE0008DF906B010BD00000010014044380240E9
:100FF000000002402DE9F843044690F839001F46EE
:1010000016460D46202850D1B5B1AEB194F838003F
:1010100001284AD0012084F838004FF00008C4F8B5
:101020003C80212084F83900FFF758FAA6848146D5
:10103000E68484F8388026E00120BDE8F883E08C5F
:10104000401EE084A0684B46B0F5805F4FF0000280
:101050004FF080012046009703D000F021FAE8B954
:101060000DE000F01DFAC8B928882168C0F3080017
:101070004860206908B16D1C05E0AD1C03E02168E3
:1010800015F8010B4860E08C0028D8D14B460022AF
:1010900040212046009700F003FA08B10320CCE776
:1010A000202084F839000020C7E70220C5E7FEE7CA
:1010B00010B586B014216846FFF7CCF81E4800240E
:1010C000016841F480710160016801F4807105914B
:1010D000016841F004010160016801F0040105911B
:1010E000016841F080010160016801F08001059113
:1010F000016841F0010101600068694600F00100EB
:1011000005904FF41060CDE900040C480294FFF7FD
:10111000F5F84FF40050CDE9000469460848029400
:10112000FFF7ECF81020CDE9000469460548029469
:10113000FFF7E4F806B010BD30380240002002404E
:1011400000080240001C024010B586B0002412487E
:10115000009401940294039404940E490594016050
:101160000F21C0E9011442F20F71C0E90314446178
:101170008461FFF74BFD4FF48050009069460648AC
:10118000FFF78FFD049404A903480594FFF7F6FCCC
:1011900006B010BD0000014040000020FEE770478F
:1011A00070477047FFF7A0B910B592B0302168467C
:1011B000FFF750F814210CA8FFF74CF8154800244D
:1011C000016841F080510160006800F0805011908A
:1011D0001148016821F4404141F4804101600068F8
:1011E000069400F4404011900220009001200390EA
:1011F000102004906846FFF7FDFA0F20CDE90C049B
:101200000E940F9400210CA81094FFF707FA12B067
:1012100010BD0000403802400070004005480168E1
:1012200041F47001016003494FF0006080390860AB
:101230007047000088ED00E00148FFF79EBD000008
:1012400040000020F0B50268254C264D264E274F61
:10125000274B4FF0804CA04209D0604507D0A842F0
:1012600005D0B04203D0B84201D0984204D122F058
:10127000700E4A6842EA0E02A0421BD0604519D0A7
:10128000A84217D0B04215D0B84213D0984211D01E
:10129000184DA8420ED0184DA8420BD0174DA842A9
:1012A00008D0174DA84205D0164DA84202D0164DC1
:1012B000A84203D122F44075CA682A434D6922F03E
:1012C00080022A4302608A68C2620A688262A0427F
:1012D00001D0984201D10969016301214161F0BD4A
:1012E000000001400004004000080040000C0040E5
:1012F000000401400040014000440140004801401A
:1013000000180040001C00400020004010B5846818
:1013100042EA032224F47F440A432243826010BD40
:10132000826822F070020A4342F007018160704730
:1013300010B5036A046A24F001040462846924F08D
:10134000F00444EA021423F00A020A4384610262B0
:1013500010BD10B5036A23F0100303628369046AA9
:1013600023F4704343EA023224F0A00343EA01115C
:101370008261016210BD00002DE9F0410446006861
:101380000169E26821F44051114301612169A068BB
:10139000E26908436169114308432168CA6849F258
:1013A0000C639A430243CA6020684169A26921F430
:1013B000407111434161E069192764253226B0F577
:1013C000004F354A354920684FF0000806D0884262
:1013D00001D0904236D1FFF7CBF935E0884201D0F9
:1013E000904202D1FFF7C4F901E0FFF7B1F961685B
:1013F0004A18A0FB070148EB0803FEF7F3FE01467D
:10140000B0FBF5F00201B1FBF5F06FF018035843A3
:1014100001EB800006EBC000B0FBF5F000F0F80037
:1014200002EB4002B1FBF5F0584301EB800006EB04
:10143000C000B0FBF5F000F00700216810448860A0
:10144000BDE8F081FFF784F961688B0F8A00A0FB8B
:101450000701FEF7C7FE0146B0FBF5F06FF018027A
:10146000504301EB800006EB0010B0FBF5F000F0FC
:10147000F002B1FBF5F002EB0012B1FBF5F06FF0FA
:101480001803584301EB800006EB0010B0FBF5F0A9
:1014900000F00F00D1E700000014014000100140EF
:1014A0002DE9F041984617460E460446069D1DE07C
:1014B000681C1BD02DB1FFF711F8A0EB0800A84263
:1014C00014D92068C16821F4D071C16020684169D5
:1014D00021F001014161202084F8390084F83A00AC
:1014E000002084F838000320BDE8F08120680068FF
:1014F00036EA000004D00020B842D9D00020F3E73B
:101500000120F9E7FEE700000FB4054B10B503A971
:10151000044A029800F028F810BC5DF814FB0000A3
:10152000BD1600083C0000200907090E002804DB56
:1015300000F1E02080F80014704700F00F0000F187
:10154000E02080F8141D704702E008C8121F08C18F
:10155000002AFAD170477047002001E001C1121F34
:10156000002AFBD1704700002DE9FF4F89B09B4650
:101570000446002506E025280BD05A460B999047D3
:10158000641C6D1C20780028F5D10DB02846BDE8FC
:10159000F08F0027B8460122474900E0074314F8BE
:1015A000013F203B02FA03F00842F7D120782E28B1
:1015B00019D114F8010F47F004072A280ED06FF054
:1015C0002F022078A0F1300109290CD808EB8801FE
:1015D00002EB410100EB0108641CF2E70A98641C6D
:1015E00050F8048B0A9020780028CED0642808D0C8
:1015F000692806D075281ED05A460B9990476D1C55
:1016000058E00A994FF00A0901C90A91002802DA44
:1016100040422D2102E0390504D52B218DF8201000
:10162000012103E0F90704D02021F7E78A4608AE3C
:101630000DE00021FAE70A994FF00A0901C90A9161
:10164000F7E74946FEF711FE303106F8011D002884
:10165000F7D1ADEB060000F12009780701D44FF077
:101660000108C84502DDA8EB090000E00020804623
:10167000002706E008A85A46C05D0B9990476D1CEC
:101680007F1C5745F6DB04E030205A460B99904703
:101690006D1CB8F10001A8F10108F5DC05E016F8B1
:1016A000010B5A460B9990476D1CB9F10001A9F145
:1016B0000109F4DC641C65E70928010013B542F256
:1016C0001073012269460248FFF794FC00981CBD84
:1016D0008000002070B51449052500244A8832B1E5
:1016E0008B88834205D0888000224A8003E088806E
:1016F00001E0022A02D24A88521C4A8092B2022A8F
:101700000FD10122CA71094931F83420824204D133
:10171000254607A0FFF7F8FE03E0641CE4B2052CA1
:10172000F2D3284670BD0000C00000200400002055
:101730004B45592050726573732E0D0A000000004E
:1017400030B51049024600208B79052B0FD24C880A
:10175000641CA4B24C808D88954208D1022C07D01D
:10176000094A02EBC302D388A34204D1D07830BD2A
:101770000122CA7130BD03F11405A542FAD14B8094
:10178000107930BDC000002004000020F0B51649DB
:1017900000200246CB791BB38C79052C20D2134D47
:1017A0004E8805EBC403DF88BE4219D298785B7976
:1017B000B3B101F10900235C4BB12254887901EBEC
:1017C0004000C281887905EBC000407908E0012320
:1017D00023548C791E2001EB4404E0810B7200201D
:1017E0004A80CA718A80F0BDC00000200400002039
:1017F0002DE9F0411C4E00251C4F35702C464FF44E
:1018000080713846FEF764FE00B901244FF40051A0
:101810001748FEF75DFE08B944F002041021154890
:10182000FEF756FE08B944F004044FF40061384650
:10183000FEF74EFE08B944F00804200011D0F179FB
:1018400021B1FFF77DFF050003D007E0FFF742FF5E
:10185000B071307A10B100F00FF805462846BDE8A7
:10186000F081FFF793FFEEE7C00000200020024068
:1018700000080240001C024070B500200D4A0546D9
:10188000014610725FF0010602EB4104E38923B1C7
:101890005B1EE3811672E38923B1491CC9B2052995
:1018A000F2D370BD50184572034800EBC100807838
:1018B00070BD0000C000002004000020FEF71CFEE8
:1018C000FFF772FCFFF7F4FB114810490C2201608E
:1018D0004FF4E131416000218160C160C0E9041230
:1018E0008161C161FFF71FFBFFF72EFC08484038FC
:1018F000FFF7C6F9074C20780028FCD0FFF778FFE7
:101900000100F8D004A0FFF7FFFDF4E7001001404C
:1019100080000020C00000204B45592056414C5506
:1019200045203D2025642E0D0A0000000000000027
:10193000000000000102030406070809000000007F
:1019400001020304641900080000002040000000A8
:1019500048150008A4190008400000209804000061
:101960005815000800000000010001020304C8002F
:10197000020005060008FA000400090A0B002C0109
:1019800008000D0E0F102C010300111200002C0195
:101990000100000010000000000000000024F4001E
:0419A0000000000043
:04000005080001AD41
:00000001FF
